:030000000201A258
:03004300020100B7
:1001000002017F000202D70002017F0002017F008E
:1001100002017F0002017F0002017F0002017F00D7
:1001200002017F0002017F0002017F000203F5004F
:1001300002017F0002017F0002017F0002056700CB
:1001400002017F0002017F0002017F0002017F00A7
:1001500002017F0002017F0002017F0002017F0097
:1001600002017F0002017F0002017F0002017F0087
:1001700002017F0002017F0002017F0002017FC0B7
:1001800086C082C083C084C085C0E0C0D0E591C273
:10019000E4F591D0D0D0E0D085D084D083D082D087
:1001A000863290E60074101206D890E60B740312A3
:1001B00006D875B80075F8FF90E66874081206D87E
:1001C00090E67174001206D81201E012024F007816
:1001D00081E660FAE5BB548060F47401F5BB80EE03
:1001E0007882760075B2E075806090E60174A012A6
:1001F00006D875981390E67274081206D822058600
:10020000901F0093C299F599E59830E1FB0586228D
:100210000586C285C298E59830E0FBE599901F00FD
:1002200093058622540F4440C2851201FE1202102B
:10023000D28522C0E0540F4460C2851201FEE8124C
:1002400001FED285D0E012022488F0B5F0E52290BC
:10025000E6047480F07402F07404F07406F074081C
:10026000F07400F090E6127492F090E6187400F0CA
:1002700090E6917400F01206CEF01206CEF012064F
:10028000CE90E61074A0F090E68D7400F01206CEC9
:10029000F01206CE90E61474D2F090E61574E0F0F9
:1002A00090E65E7488F090E65F7488F090E65C7487
:1002B00002F075E80175A88022E58020E0FBC28588
:1002C000120210F0A3120210F0A3120210F0A312F7
:1002D0000210F0A3D28522C086C082C083C084C031
:1002E00085C0E0C0D0C000C001C002C003C004C0CF
:1002F00005C006C007C2AFE5AA5420703EC2877889
:1003000083E6F87404120233D28790F800E5B0F067
:10031000A3E5A0F0A3E590F0A37400F0A37882E633
:10032000F81202B9D8FBC28790E69874001206D87A
:100330007882E6232390E6991206D8E5AA54017044
:100340001190F0001204D690E69174001206D812B3
:1003500006D8E591C2E4F59190E65D7402F0D2AF63
:10036000D007D006D005D004D003D002D001D000F1
:10037000D0D0D0E0D085D084D083D082D0863290C7
:10038000E60474801206D890E60474081206D89029
:10039000E60474001206D82290E60474801206D88F
:1003A00090E60474061206D890E60474001206D88B
:1003B00022C287D28500000074C0C2851201FED21D
:1003C00085E0A3F87400120233E0A3F8740112026E
:1003D00033E0A3F87403120233E0A37883F6F874D1
:1003E00004120233E0A3F87405120233E0A3F87498
:1003F0000612023322C086C082C083C084C085C07A
:10040000E0C0D0C000C001C002C003C004C005C02D
:1004100006C007C2AF90E780E07880F69004212301
:1004200073802B803C804280518015800680048040
:1004300005800802049B1205E180601205D3805BF1
:1004400090E7811203B112037F12051D804D90E7E2
:1004500081E0A37882F61203B112039812050C8092
:100460003A90E7811204D6803290E781E0A3F5B399
:10047000E0A3F5B4E0A3F5B5802190E781E0A3F512
:10048000B3E0A3F5B4E0A3F5B5A3E0F590E0A3F5E0
:10049000A0E0A3F5B012037F12051D90E68D740055
:1004A0001206D81206D81206D8E591C2E4F591904A
:1004B000E65F7408F0D2AFD007D006D005D004D0E4
:1004C00003D002D001D000D0D0D0E0D085D084D0ED
:1004D00083D082D08632E0A3F8E0A3FBE0A312042D
:1004E000E4D8F6225403790623D9FD4410FAEB54DC
:1004F000F0790403D9FD4AC2861201FEEB540F794C
:100500000423D9FD54F01201FED2862290E698749D
:10051000001206D890E69974011206D82290FC01C8
:10052000E4F090FC007880E6F090052E237380368E
:100530008034803280128004802C802A90FC01D28A
:10054000871202B9C287800E90FC01E590F0A3E506
:10055000A0F0A3E5B0F090E69C74001206D890E6F7
:100560009D74101206D822C086C082C083C084C089
:1005700085C0E0C0D0C000C001C002C003C004C03C
:1005800005C006C00712051DE591C2E4F59190E68D
:100590005F7480F0D007D006D005D004D003D0021D
:1005A000D001D000D0D0D0E0D085D084D083D0820C
:1005B000D08632C3C3C3C3C3C30101020602020211
:1005C000020202FFFFFFFFFFFFFFFF00000000002D
:1005D00000000078817400F690E60174A01206D83D
:1005E0002290E60174A21206D885FFB390E6137438
:1005F000A0F090E60474801206D874841206D874B1
:10060000001206D890E69574001206D81206D8900B
:10061000E6F574FF1206D8E5BB548060FA90E6C395
:1006200074801206D890E6C274F01206D874019055
:10063000E6DA1206D8740190E6DB1206D874FF9051
:10064000E6CE1206D874FF90E6CF1206D874FF905B
:10065000E6D01206D874FF90E6D11206D874009046
:10066000E6F31206D8740190E6C11206D890E61996
:1006700074101206D890E6C07400F01206CE90E70F
:1006800081E09005B37A06F0A3DAFC759DE41206CA
:10069000CE759E001206CE9005B375AF071206CE3A
:1006A0007A20E0A3C082C083C084C08590E67CF03D
:1006B0001206CED085D084D083D082DAE590E64988
:1006C00074841206D81206D878817401F6220000CC
:0D06D0000000000000000022F01206CE2203
:101F0000008040C020A060E0109050D030B070F051
:101F1000088848C828A868E8189858D838B878F8C1
:101F2000048444C424A464E4149454D434B474F4F1
:101F30000C8C4CCC2CAC6CEC1C9C5CDC3CBC7CFC61
:101F4000028242C222A262E2129252D232B272F2F1
:101F50000A8A4ACA2AAA6AEA1A9A5ADA3ABA7AFA61
:101F6000068646C626A666E6169656D636B676F691
:101F70000E8E4ECE2EAE6EEE1E9E5EDE3EBE7EFE01
:101F8000018141C121A161E1119151D131B171F1C1
:101F9000098949C929A969E9199959D939B979F931
:101FA000058545C525A565E5159555D535B575F561
:101FB0000D8D4DCD2DAD6DED1D9D5DDD3DBD7DFDD1
:101FC000038343C323A363E3139353D333B373F361
:101FD0000B8B4BCB2BAB6BEB1B9B5BDB3BBB7BFBD1
:101FE000078747C727A767E7179757D737B777F701
:101FF0000F8F4FCF2FAF6FEF1F9F5FDF3FBF7FFF71
:00000001FF
