:030000000201A258
:03004300020100B7
:1001000002017F000202D40002017F0002017F0091
:1001100002017F0002017F0002017F0002017F00D7
:1001200002017F0002017F0002017F0002017F00C7
:10013000020507000203450002042B000204BB0075
:1001400002017F0002017F0002017F0002017F00A7
:1001500002017F0002017F0002017F0002017F0097
:1001600002017F0002017F0002017F0002017F0087
:1001700002017F0002017F0002017F0002017FC0B7
:1001800086C082C083C084C085C0E0C0D0E591C273
:10019000E4F591D0D0D0E0D085D084D083D082D087
:1001A000863290E6007424F090E6687408F012013C
:1001B000B712027C0080FD75B22775802222547C24
:1001C0004481C2817A0830E704D2828002C282D29E
:1001D00080C28023DAF0C2827A05D280C280DAFA45
:1001E0007C007A047D08D280C280E58030E403EC94
:1001F0004DFCED03FDDAEF7B007A087D80D280C2F2
:1002000080E58030E403EB4DFBED03FDDAEFD281B6
:1002100022759AF8759B0075AF077880E61201BECB
:10022000EB90E67BF0ECF008E61201BEEB90E67B8B
:10023000F0ECF008E61201BEEB90E67BF0ECF00883
:10024000E61201BEEB90E67BF0ECF008E61201BE90
:10025000EB90E67BF0ECF008E61201BEEB90E67B5B
:10026000F0ECF008E61201BEEB90E67BF0ECF00853
:10027000E61201BEEB90E67BF0ECF02290E604740F
:100280000FF07400F090E6127492F090E61874008B
:10029000F090E6917480F0F0F090E61374A0F09086
:1002A000E6197400F090E6957480F0F090E614740E
:1002B000D2F090E61574E0F090E65E74A0F090E65F
:1002C0005F74A0F090E65C7402F075E80175A88098
:1002D0001204AE22C086C082C083C084C085C0E044
:1002E000C0D0C000C001C002C003C004C005C00629
:1002F000C007E5AA5420700F12021190E69874000E
:10030000F090E6997410F0E5AA5401700D90F00099
:100310001203DB90E6917480F0F0E591C2E4F59170
:1003200090E65D7402F0D007D006D005D004D0036B
:10033000D002D001D000D0D0D0E0D085D084D083FE
:10034000D082D08632C086C082C083C084C085C0BF
:10035000E0C0D0C000C001C002C003C004C005C0DE
:1003600006C00790F400E090036C237380068017AA
:10037000801D802378807A0890F401E0F6A308DAE3
:10038000FAE47890F6802190F4011203DB80199052
:10039000F401E0F5B3801190F401E0F5B3A3E0F5CA
:1003A0009074FF7890F6800090E6957480F0F0F0FD
:1003B000E591C2E4F59190E65F7420F0D007D00695
:1003C000D005D004D003D002D001D000D0D0D0E0EE
:1003D000D085D084D083D082D08632E0A3F8E0FBF1
:1003E000A3E0FCA3E0A31203ECD8F32254C04430F2
:1003F0004CC2857A0830E704D2828002C282D28061
:10040000C28023DAF0EB7A0830E704D2828002C29D
:1004100082D280C28023DAF0D2852212021190E6C5
:10042000987400F090E6997410F022C086C082C0E3
:1004300083C084C085C0E0C0D0C000C001C002C07D
:1004400003C004C005C006C00712021190E69874EC
:1004500000F090E6997410F0E591C2E4F59190E611
:100460005F7440F0D007D006D005D004D003D0028E
:10047000D001D000D0D0D0E0D085D084D083D0823D
:10048000D086327890E670107880E61201BE90FC3B
:1004900000EBF0A3ECF0800990FC00E590F0A3E401
:1004A000F090E69C7400F090E69D7410F02290E6C7
:1004B0009C7400F090E69D7401F022C086C082C05A
:1004C00083C084C085C0E0C0D0C000C001C002C0ED
:1004D00003C004C005C006C007120483E591C2E44E
:1004E000F59190E65F7480F0D007D006D005D00477
:1004F000D003D002D001D000D0D0D0E0D085D084BD
:10050000D083D082D08632C086C082C083C084C0EF
:1005100085C0E0C0D0C000C001C002C003C004C09C
:1005200005C006C00790F0001203DB90E6917480CE
:10053000F0F0E591C2E4F59190E65F7410F0D00719
:10054000D006D005D004D003D002D001D000D0D046
:0D055000D0E0D085D084D083D082D0863218
:00000001FF
