:030000000201A258
:03004300020100B7
:1001000002017F000202EF0002017F0002017F0076
:1001100002017F0002017F0002017F0002017F00D7
:1001200002017F0002017F0002017F0002017F00C7
:1001300002017F0002036C0002017F0002049900AB
:1001400002017F0002017F0002017F0002017F00A7
:1001500002017F0002017F0002017F0002017F0097
:1001600002017F0002017F0002017F0002017F0087
:1001700002017F0002017F0002017F0002017FC0B7
:1001800086C082C083C084C085C0E0C0D0E591C273
:10019000E4F591D0D0D0E0D085D084D083D082D087
:1001A000863290E6007410F01204E590E668740858
:1001B000F01204E51201C3120288000000000000E2
:1001C0000080F775B22775802222547C4481C28159
:1001D0007A0830E704D2828002C282D280C28023B1
:1001E000DAF0C2827A05D280C280DAFA7C007A0420
:1001F0007D08D280C280E58030E403EC4DFCED0345
:10020000FDDAEF7B007A087D80D280C280E5803005
:10021000E403EB4DFBED03FDDAEFD28122759AF892
:10022000759B0075AF077880E61201CAEB90E67BFC
:10023000F0ECF008E61201CAEB90E67BF0ECF00877
:10024000E61201CAEB90E67BF0ECF008E61201CA78
:10025000EB90E67BF0ECF008E61201CAEB90E67B4F
:10026000F0ECF008E61201CAEB90E67BF0ECF00847
:10027000E61201CAEB90E67BF0ECF008E61201CA48
:10028000EB90E67BF0ECF02290E604740FF0740043
:10029000F090E6127492F090E6187400F090E691F7
:1002A0007480F01204E5F01204E5F01204E590E623
:1002B0001374A0F090E6197400F090E6957480F045
:1002C0001204E5F01204E590E61474D2F090E615FD
:1002D00074E0F090E65E74A0F090E65F74A0F09099
:1002E000E65C7402F075E80175A88012048C22C0E7
:1002F00086C082C083C084C085C0E0C0D0C000C0BA
:1003000001C002C003C004C005C006C007E5AA546E
:1003100020701512021D90E6987400F01204E5900A
:10032000E6997410F01204E5E5AA5401701390F0F8
:100330000012040B90E6917480F01204E5F01204B0
:10034000E5E591C2E4F59190E65D7402F0D007D046
:1003500006D005D004D003D002D001D000D0D0D038
:10036000E0D085D084D083D082D08632C086C0824F
:10037000C083C084C085C0E0C0D0C000C001C0023E
:10038000C003C004C005C006C00790F400E090039D
:1003900093237380068017801D802378807A0890CD
:1003A000F401E0F6A308DAFAE47890F6802190F4FC
:1003B0000112040B801990F401E0F5B3801190F460
:1003C00001E0F5B3A3E0F59074FF7890F68000901B
:1003D000E6957480F01204E5F01204E5F01204E5ED
:1003E000E591C2E4F59190E65F7420F0D007D00665
:1003F000D005D004D003D002D001D000D0D0D0E0BE
:10040000D085D084D083D082D08632E0A3F8E0FBC0
:10041000A3E0FCA3E0A312041CD8F32254C0443090
:100420004CC2857A0830E704D2828002C282D28030
:10043000C28023DAF0EB7A0830E704D2828002C26D
:1004400082D280C28023DAF0D2852212021D90E689
:10045000987400F01204E590E6997410F01204E527
:10046000227890E670107880E61201CA90FC00EBCA
:10047000F0A3ECF0800990FC00E590F0A3E4F0908C
:10048000E69C7400F090E69D7410F02290E69C7457
:1004900000F090E69D7401F022C086C082C083C047
:1004A00084C085C0E0C0D0C000C001C002C003C08D
:1004B00004C005C006C007120461E591C2E4F591CD
:1004C00090E65F7480F0D007D006D005D004D0034A
:1004D000D002D001D000D0D0D0E0D085D084D0835D
:0A04E000D082D08632000000002216
:00000001FF
