:030000000201A258
:03000B000202F8F6
:03004300020100B7
:1001000002017F000203390002017F0002017F002B
:1001100002017F0002017F0002017F0002017F00D7
:1001200002017F0002017F0002017F0002017F00C7
:1001300002017F000203E40002017F0002055A0071
:1001400002017F0002017F0002017F0002017F00A7
:1001500002017F0002017F0002017F0002017F0097
:1001600002017F0002017F0002017F0002017F0087
:1001700002017F0002017F0002017F0002017FC0B7
:1001800086C082C083C084C085C0E0C0D0E591C273
:10019000E4F591D0D0D0E0D085D084D083D082D087
:1001A000863290E60074101205B090E60B740312CC
:1001B00005B075B80075F8FF90E66874081205B0D0
:1001C0001201D212025A1201D900000000000000F0
:1001D00080F775B22775802222758E01758A107599
:1001E0008C0075A882758900D28C22547C4481C20F
:1001F000817A0830E704D2828002C282D280C28033
:1002000023DAF0C2827A05D280C280DAFA7C007AE0
:10021000047D08D280C280E58030E403EC4DFCED23
:1002200003FDDAEF7B007A087D80D280C280E58012
:1002300030E403EB4DFBED03FDDAEFD28122759A3A
:10024000F8759B0075AF077880E6F990E67B08E6C5
:100250001201EBEBF0ECF0D9F52290E6047480F09B
:100260007402F07404F07406F07408F07400F090F6
:10027000E6127492F090E6187400F090E691740023
:10028000F01205A6F01205A6F01205A690E613746A
:10029000A0F090E6197400F090E6957400F0120555
:1002A000A6F01205A690E61474D2F090E61574E05C
:1002B000F090E65E74A0F090E65F74A0F090E65CCB
:1002C0007402F075E80175A88022E590FD5B600678
:1002D000E4F70CF7801FE66D5D5C6019ED5A700C59
:1002E000E714F7B4FF0F09E714F78009E704F77084
:1002F0000409E704F7EDF622C086C0E0C0D0C000D4
:10030000C001C002C003C004C005789879A0740180
:10031000FC23FA23FB1202CA080909EB2323FC235E
:10032000FA23FB1202CAD005D004D003D002D001B8
:10033000D000D0D0D0E0D08632C086C082C083C08A
:1003400084C085C0E0C0D0C000C001C002C003C0EE
:1003500004C005C006C007E5AA5420701312023E6F
:1003600090E69874001205B090E69974101205B0EA
:10037000E5AA5401701190F0001204B790E6917450
:10038000001205B01205B0E591C2E4F59190E65D6A
:100390007402F0D007D006D005D004D003D002D02C
:1003A00001D000D0D0D0E0D085D084D083D082D00E
:1003B000863290E60474801205B090E60474081248
:1003C00005B090E60474001205B02290E604748033
:1003D0001205B090E60474061205B090E6047400AD
:1003E0001205B022C086C082C083C084C085C0E030
:1003F000C0D0C000C001C002C003C004C005C00618
:10040000C00790F400E07890F690040E23738039D2
:10041000804C805280588022800280081203B212E1
:10042000050B805A90F40178A0E06005F90808D91E
:10043000FCA3E0F608A3E0F68044789190F401E094
:10044000F61203B212050B803578807A0990F40118
:10045000E0F6A308DAFA1203CB1204F7802090F436
:10046000011204B7801890F401E0F5B3801090F405
:1004700001E0F5B3A3E0F5901203B212050B90E68C
:100480009574001205B01205B01205B0E591C2E4F2
:10049000F59190E65F7420F0D007D006D005D00427
:1004A000D003D002D001D000D0D0D0E0D085D0840D
:1004B000D083D082D08632E0A3F8E0FBA3E0FCA397
:1004C000E0A31204C8D8F32254C044304CC2857A49
:1004D0000830E704D2828002C282D280C28023DA4E
:1004E000F0EB7A0830E704D2828002C282D280C266
:1004F0008023DAF0D2852212023E90E69874001230
:1005000005B090E69974101205B0227890E6900537
:1005100013237380448042804080258013800280B2
:100520003878A090FC007908E6F008A3D9FA801981
:100530007891E61201EB90FC00EBF0A3ECF080095F
:1005400090FC00E590F0A3E4F090E69C74001205A6
:10055000B090E69D74101205B022C086C082C083A0
:10056000C084C085C0E0C0D0C000C001C002C003CC
:10057000C004C005C006C00712050BE591C2E4F532
:100580009190E65F7480F0D007D006D005D004D0FB
:1005900003D002D001D000D0D0D0E0D085D084D01C
:1005A00083D082D0863200000000000000000022CC
:0505B000F01205A62277
:00000001FF
