:030000000201A258
:03004300020100B7
:1001000002017F0002033C0002017F0002017F0028
:1001100002017F0002017F0002017F0002017F00D7
:1001200002017F0002017F0002017F0002017F00C7
:10013000020577000203B50002049B0002052B00B4
:1001400002017F0002017F0002017F0002017F00A7
:1001500002017F0002017F0002017F0002017F0097
:1001600002017F0002017F0002017F0002017F0087
:1001700002017F0002017F0002017F0002017FC0B7
:1001800086C082C083C084C085C0E0C0D0E591C273
:10019000E4F591D0D0D0E0D085D084D083D082D087
:1001A000863290E6007414F090E6687408F012014C
:1001B000C490E680E0548070051202898003120228
:1001C000E10080FD75B22775802222547C4481C2F3
:1001D000817A0830E704D2828002C282D280C28053
:1001E00023DAF0C2827A05D280C280DAFA7C007A01
:1001F000047D08D280C280E58030E403EC4DFCED44
:1002000003FDDAEF7B007A087D80D280C280E58032
:1002100030E403EB4DFBED03FDDAEFD28122759A5A
:10022000F8759B0075AF077880E61201CBEB90E67E
:100230007BF0ECF008E61201CBEB90E67BF0ECF003
:1002400008E61201CBEB90E67BF0ECF008E6120139
:10025000CBEB90E67BF0ECF008E61201CBEB90E6FE
:100260007BF0ECF008E61201CBEB90E67BF0ECF0D3
:1002700008E61201CBEB90E67BF0ECF008E6120109
:10028000CBEB90E67BF0ECF02290E604740FF07478
:1002900000F090E6127492F090E6187400F090E688
:1002A000917480F0F0F090E61374A0F090E6197469
:1002B00000F090E6957480F0F090E61474D2F0901F
:1002C000E61574E0F090E65E74A0F090E65F74A02E
:1002D000F090E65C7402F075E80175A88012051EC6
:1002E0002290E604740FF07400F090E61274B2F0FD
:1002F00090E6187400F090E6917480F0F0F090E6CB
:100300001374A0F090E6197400F090E6957480F0F4
:10031000F090E61474F2F090E61574E0F090E65E6A
:1003200074F0F090E65F74F0F090E65C7400F075A5
:10033000E80175A88012051E12048B22C086C082B7
:10034000C083C084C085C0E0C0D0C000C001C0026E
:10035000C003C004C005C006C00790E680E054801A
:100360007028E5AA5420700F12021E90E6987400BF
:10037000F090E6997410F0E5AA5401700D90F00029
:1003800012044B90E6917480F0F0E591C2E4F5918F
:1003900090E65D7402F0D007D006D005D004D003FB
:1003A000D002D001D000D0D0D0E0D085D084D0838E
:1003B000D082D08632C086C082C083C084C085C04F
:1003C000E0C0D0C000C001C002C003C004C005C06E
:1003D00006C00790F400E09003DC237380068017CA
:1003E000801D802378807A0890F401E0F6A308DA73
:1003F000FAE47890F6802190F40112044B80199071
:10040000F401E0F5B3801190F401E0F5B3A3E0F559
:100410009074FF7890F6800090E6957480F0F0F08C
:10042000E591C2E4F59190E65F7420F0D007D00624
:10043000D005D004D003D002D001D000D0D0D0E07D
:10044000D085D084D083D082D08632E0A3F8E0FB80
:10045000A3E0FCA3E0A312045CD8F32254C0443010
:100460004CC2857A0830E704D2828002C282D280F0
:10047000C28023DAF0EB7A0830E704D2828002C22D
:1004800082D280C28023DAF0D2852212021E90E648
:10049000987400F090E6997410F022C086C082C073
:1004A00083C084C085C0E0C0D0C000C001C002C00D
:1004B00003C004C005C006C00712021E90E698746F
:1004C00000F090E6997410F0E591C2E4F59190E6A1
:1004D0005F7440F0D007D006D005D004D003D0021E
:1004E000D001D000D0D0D0E0D085D084D083D082CD
:1004F000D086327890E670107880E61201CB90FCBE
:1005000000EBF0A3ECF0800990FC00E590F0A3E490
:10051000F090E69C7400F090E69D7410F02290E656
:100520009C7400F090E69D7401F022C086C082C0E9
:1005300083C084C085C0E0C0D0C000C001C002C07C
:1005400003C004C005C006C0071204F3E591C2E46D
:10055000F59190E65F7480F0D007D006D005D00406
:10056000D003D002D001D000D0D0D0E0D085D0844C
:10057000D083D082D08632C086C082C083C084C07F
:1005800085C0E0C0D0C000C001C002C003C004C02C
:1005900005C006C00790F00012044B90E6917480ED
:1005A000F0F0E591C2E4F59190E65F7410F0D007A9
:1005B000D006D005D004D003D002D001D000D0D0D6
:0D05C000D0E0D085D084D083D082D08632A8
:00000001FF
