:030000000201A258
:03004300020100B7
:1001000002017F0002017F0002017F0002017F00E7
:1001100002017F0002017F0002017F0002017F00D7
:1001200002017F0002017F0002017F0002017F00C7
:1001300002017F000202DA0002017F0002017F005B
:1001400002017F0002017F0002017F0002017F00A7
:1001500002017F0002017F0002017F0002017F0097
:1001600002017F0002017F0002017F0002017F0087
:1001700002017F0002017F0002017F0002017FC0B7
:1001800086C082C083C084C085C0E0C0D0E591C273
:10019000E4F591D0D0D0E0D085D084D083D082D087
:1001A000863290E60B74031203FA90E60074101284
:1001B00003FA90E60174A21203FA90E60474801226
:1001C00003FA74081203FA74021203FA7404120395
:1001D000FA74061203FA74001203FA90E6687408BF
:1001E0001203FA12029B1202151201EE80FBE57057
:1001F0006022E5BB5480601C90F80074FFF0A3F00F
:1002000090E69874021203FA90E69974001203FAC9
:100210007406F5BB2290E61474E01203FA90E61A15
:1002200074091203FA90E62474021203FA90E62588
:1002300074001203FA90E6C074FC1203FA90E6C34D
:1002400074801203FA90E6C274FF1203FA74FD126E
:1002500003FA74FF1203FA740290E6E21203FA74CE
:100260000190E6E31203FA740090E6F31203FA74C5
:100270000090E6C11203FA90E420743F1203FA9052
:10028000E42874011203FA90E43074FF1203FA9028
:10029000E43874FF1203FA7570002290E61374A01C
:1002A0001203FA90E69574001203FA1203FA12038D
:1002B000FA90E61574001203FA90E65E74201203B9
:1002C000FA90E65F7424F090E65C7400F090E660CB
:1002D0007400F075E80175A88022C086C082C083D2
:1002E000C084C085C0E0C0D0C000C001C002C0034F
:1002F000C004C005C006C00790F400E090030123CD
:1003000073800580000203B875700090E61A7400CF
:100310001203FA90E6F574FF1203FAE5BB5480600D
:10032000FA90E6C074FDF01203F090E604748012B7
:1003300003FA74061203FA74001203FA7406F5BB8A
:10034000AAFFDAFE90E6F574FF1203FAAAFFDAFEBE
:10035000E5BB548060FA759DE41203F0759E0012AF
:1003600003F0759AF41203F0759B011203F075AF58
:10037000071203F07A2090E67BE01203F090E67C0F
:10038000F01203F0DAF090E61A74091203FA90E61C
:10039000C074FCF01203F090E60474801203FA7447
:1003A000061203FA74001203FA90E410E044FB9082
:1003B000E6C21203FA75700190E6957400F012031C
:1003C000F0F01203F0E591C2E4F59190E65F74203D
:1003D000F0D007D006D005D004D003D002D001D091
:1003E00000D0D0D0E0D085D084D083D082D08632E7
:0F03F000000000000000000000221203F0F022C5
:00000001FF
