:030000000201A258
:03004300020100B7
:1001000002017F0002017F0002017F0002017F00E7
:1001100002017F0002017F0002017F0002017F00D7
:1001200002017F0002017F0002017F0002017F00C7
:1001300002017F000202C40002017F0002017F0071
:1001400002017F0002017F0002017F0002017F00A7
:1001500002017F0002017F0002017F0002017F0097
:1001600002017F0002017F0002017F0002017F0087
:1001700002017F0002017F0002017F0002017FC0B7
:1001800086C082C083C084C085C0E0C0D0E591C273
:10019000E4F591D0D0D0E0D085D084D083D082D087
:1001A000863290E60B74031203E490E6007410129A
:1001B00003E490E60174B21203E490E60474801242
:1001C00003E474081203E474021203E474041203D7
:1001D000E474061203E474001203E490E668740801
:1001E0001203E412028B1201FD1201EE80FBE57096
:1001F000600AE5BB548060047406F5BB2290E614E7
:1002000074D01203E490E61A74091203E490E62411
:1002100074021203E490E62574001203E490E642AF
:1002200074011203E490E6C074FC1203E490E6C388
:1002300074801203E490E6C274FF1203E474FD12AA
:1002400003E474FF1203E4740290E6E21203E47420
:100250000190E6E31203E4740090E6F31203E47401
:100260000090E6C11203E490E420743F1203E4908E
:10027000E42874011203E490E43074FF1203E49064
:10028000E43874FF1203E47570002290E61374A042
:10029000F090E69574001203E41203E41203E49074
:1002A000E6157400F090E65E7420F090E65F74242A
:1002B000F090E65C7400F090E6607400F075E80180
:1002C00075A88022C086C082C083C084C085C0E07B
:1002D000C0D0C000C001C002C003C004C005C00639
:1002E000C00790F400E09002EB23738005800002C9
:1002F00003A275700090E61A74001203E490E6F50C
:1003000074FF1203E4E5BB548060FA90E6C074FD0C
:10031000F01203DA90E60474801203E47406120308
:10032000E474001203E47406F5BBAAFFDAFE90E65B
:10033000F574FF1203E4AAFFDAFEE5BB548060FA0D
:10034000759DE41203DA759E001203DA759AF412B1
:1003500003DA759B011203DA75AF071203DA7A200C
:1003600090E67BE01203DA90E67CF01203DADAF032
:1003700090E61A74091203E490E6C074FCF01203CC
:10038000DA90E60474801203E474061203E4740045
:100390001203E490E410E044FB90E6C21203E4751B
:1003A000700190E6957400F01203DAF01203DAE5BA
:1003B00091C2E4F59190E65F7420F0D007D006D0AA
:1003C00005D004D003D002D001D000D0D0D0E0D0EE
:1003D00085D084D083D082D0863200000000000017
:0903E000000000221203DAF022F1
:00000001FF
